{
  "contractName": "CharityContract",
  "abi": [
    {
      "inputs": [],
      "stateMutability": "nonpayable",
      "type": "constructor"
    },
    {
      "anonymous": false,
      "inputs": [
        {
          "indexed": true,
          "internalType": "uint256",
          "name": "needId",
          "type": "uint256"
        },
        {
          "indexed": true,
          "internalType": "address",
          "name": "contributor",
          "type": "address"
        },
        {
          "indexed": false,
          "internalType": "uint256",
          "name": "amount",
          "type": "uint256"
        }
      ],
      "name": "ContributionMade",
      "type": "event"
    },
    {
      "anonymous": false,
      "inputs": [
        {
          "indexed": true,
          "internalType": "uint256",
          "name": "needId",
          "type": "uint256"
        },
        {
          "indexed": false,
          "internalType": "uint256",
          "name": "totalRaised",
          "type": "uint256"
        }
      ],
      "name": "NeedCompleted",
      "type": "event"
    },
    {
      "anonymous": false,
      "inputs": [
        {
          "indexed": true,
          "internalType": "uint256",
          "name": "needId",
          "type": "uint256"
        },
        {
          "indexed": true,
          "internalType": "address",
          "name": "creator",
          "type": "address"
        },
        {
          "indexed": false,
          "internalType": "string",
          "name": "title",
          "type": "string"
        },
        {
          "indexed": false,
          "internalType": "uint256",
          "name": "targetAmount",
          "type": "uint256"
        }
      ],
      "name": "NeedCreated",
      "type": "event"
    },
    {
      "anonymous": false,
      "inputs": [
        {
          "indexed": true,
          "internalType": "address",
          "name": "previousOwner",
          "type": "address"
        },
        {
          "indexed": true,
          "internalType": "address",
          "name": "newOwner",
          "type": "address"
        }
      ],
      "name": "OwnershipTransferred",
      "type": "event"
    },
    {
      "inputs": [
        {
          "internalType": "uint256",
          "name": "",
          "type": "uint256"
        },
        {
          "internalType": "address",
          "name": "",
          "type": "address"
        }
      ],
      "name": "contributions",
      "outputs": [
        {
          "internalType": "uint256",
          "name": "",
          "type": "uint256"
        }
      ],
      "stateMutability": "view",
      "type": "function"
    },
    {
      "inputs": [],
      "name": "needCount",
      "outputs": [
        {
          "internalType": "uint256",
          "name": "",
          "type": "uint256"
        }
      ],
      "stateMutability": "view",
      "type": "function"
    },
    {
      "inputs": [
        {
          "internalType": "uint256",
          "name": "",
          "type": "uint256"
        }
      ],
      "name": "needs",
      "outputs": [
        {
          "internalType": "string",
          "name": "title",
          "type": "string"
        },
        {
          "internalType": "string",
          "name": "description",
          "type": "string"
        },
        {
          "internalType": "address",
          "name": "creator",
          "type": "address"
        },
        {
          "internalType": "uint256",
          "name": "targetAmount",
          "type": "uint256"
        },
        {
          "internalType": "uint256",
          "name": "raisedAmount",
          "type": "uint256"
        },
        {
          "internalType": "bool",
          "name": "isActive",
          "type": "bool"
        },
        {
          "internalType": "uint256",
          "name": "createdAt",
          "type": "uint256"
        }
      ],
      "stateMutability": "view",
      "type": "function"
    },
    {
      "inputs": [],
      "name": "owner",
      "outputs": [
        {
          "internalType": "address",
          "name": "",
          "type": "address"
        }
      ],
      "stateMutability": "view",
      "type": "function"
    },
    {
      "inputs": [],
      "name": "renounceOwnership",
      "outputs": [],
      "stateMutability": "nonpayable",
      "type": "function"
    },
    {
      "inputs": [
        {
          "internalType": "address",
          "name": "newOwner",
          "type": "address"
        }
      ],
      "name": "transferOwnership",
      "outputs": [],
      "stateMutability": "nonpayable",
      "type": "function"
    },
    {
      "inputs": [
        {
          "internalType": "string",
          "name": "_title",
          "type": "string"
        },
        {
          "internalType": "string",
          "name": "_description",
          "type": "string"
        },
        {
          "internalType": "uint256",
          "name": "_targetAmount",
          "type": "uint256"
        }
      ],
      "name": "createNeed",
      "outputs": [
        {
          "internalType": "uint256",
          "name": "",
          "type": "uint256"
        }
      ],
      "stateMutability": "nonpayable",
      "type": "function"
    },
    {
      "inputs": [
        {
          "internalType": "uint256",
          "name": "_needId",
          "type": "uint256"
        }
      ],
      "name": "contribute",
      "outputs": [],
      "stateMutability": "payable",
      "type": "function"
    },
    {
      "inputs": [
        {
          "internalType": "uint256",
          "name": "_needId",
          "type": "uint256"
        }
      ],
      "name": "getNeedDetails",
      "outputs": [
        {
          "internalType": "string",
          "name": "title",
          "type": "string"
        },
        {
          "internalType": "string",
          "name": "description",
          "type": "string"
        },
        {
          "internalType": "address",
          "name": "creator",
          "type": "address"
        },
        {
          "internalType": "uint256",
          "name": "targetAmount",
          "type": "uint256"
        },
        {
          "internalType": "uint256",
          "name": "raisedAmount",
          "type": "uint256"
        },
        {
          "internalType": "bool",
          "name": "isActive",
          "type": "bool"
        },
        {
          "internalType": "uint256",
          "name": "createdAt",
          "type": "uint256"
        }
      ],
      "stateMutability": "view",
      "type": "function"
    },
    {
      "inputs": [],
      "name": "getNeedCount",
      "outputs": [
        {
          "internalType": "uint256",
          "name": "",
          "type": "uint256"
        }
      ],
      "stateMutability": "view",
      "type": "function"
    },
    {
      "inputs": [],
      "name": "getNeedIds",
      "outputs": [
        {
          "internalType": "uint256[]",
          "name": "",
          "type": "uint256[]"
        }
      ],
      "stateMutability": "view",
      "type": "function"
    },
    {
      "inputs": [
        {
          "internalType": "uint256",
          "name": "_needId",
          "type": "uint256"
        }
      ],
      "name": "withdrawFunds",
      "outputs": [],
      "stateMutability": "nonpayable",
      "type": "function"
    }
  ],
  "bytecode": "0x608060405234801561000f575f80fd5b5061001933610026565b600180555f600455610075565b5f80546001600160a01b038381166001600160a01b0319831681178455604051919092169283917f8be0079c531659141344cd1fd0a4f28419497f9722a3daafe3b4186f6b6457e09190a35050565b6110e9806100825f395ff3fe6080604052600436106100a5575f3560e01c8063b8ef4c5811610062578063b8ef4c581461018f578063c1cbbca7146101b0578063d05282d0146101c3578063d9516c27146101d8578063dcf9e780146101f7578063f2fde38b14610216575f80fd5b806309338343146100a9578063155dd5ee146100cc5780633d891f59146100ed578063432747a514610123578063715018a6146101555780638da5cb5b14610169575b5f80fd5b3480156100b4575f80fd5b506004545b6040519081526020015b60405180910390f35b3480156100d7575f80fd5b506100eb6100e6366004610c73565b610235565b005b3480156100f8575f80fd5b506100b9610107366004610ca5565b600360209081525f928352604080842090915290825290205481565b34801561012e575f80fd5b5061014261013d366004610c73565b6103c0565b6040516100c39796959493929190610d12565b348015610160575f80fd5b506100eb610514565b348015610174575f80fd5b505f546040516001600160a01b0390911681526020016100c3565b34801561019a575f80fd5b506101a3610527565b6040516100c39190610d6c565b6100eb6101be366004610c73565b6105b3565b3480156101ce575f80fd5b506100b960045481565b3480156101e3575f80fd5b506100b96101f2366004610e4c565b6107da565b348015610202575f80fd5b50610142610211366004610c73565b61095f565b348015610221575f80fd5b506100eb610230366004610eb4565b610afc565b61023d610b72565b60045481106102675760405162461bcd60e51b815260040161025e90610ed4565b60405180910390fd5b5f818152600260208190526040909120908101546001600160a01b031633146102d25760405162461bcd60e51b815260206004820152601960248201527f4f6e6c792063726561746f722063616e20776974686472617700000000000000604482015260640161025e565b600581015460ff161561031e5760405162461bcd60e51b81526020600482015260146024820152734e656564206973207374696c6c2061637469766560601b604482015260640161025e565b6004810180545f91829055604051909190339083908381818185875af1925050503d805f8114610369576040519150601f19603f3d011682016040523d82523d5f602084013e61036e565b606091505b50509050806103b15760405162461bcd60e51b815260206004820152600f60248201526e151c985b9cd9995c8819985a5b1959608a1b604482015260640161025e565b5050506103bd60018055565b50565b60026020525f90815260409020805481906103da90610efd565b80601f016020809104026020016040519081016040528092919081815260200182805461040690610efd565b80156104515780601f1061042857610100808354040283529160200191610451565b820191905f5260205f20905b81548152906001019060200180831161043457829003601f168201915b50505050509080600101805461046690610efd565b80601f016020809104026020016040519081016040528092919081815260200182805461049290610efd565b80156104dd5780601f106104b4576101008083540402835291602001916104dd565b820191905f5260205f20905b8154815290600101906020018083116104c057829003601f168201915b50505050600283015460038401546004850154600586015460069096015494956001600160a01b03909316949193509160ff169087565b61051c610bcb565b6105255f610c24565b565b60605f60045467ffffffffffffffff81111561054557610545610daf565b60405190808252806020026020018201604052801561056e578160200160208202803683370190505b5090505f5b6004548110156105ad578082828151811061059057610590610f2f565b6020908102919091010152806105a581610f57565b915050610573565b50919050565b6105bb610b72565b60045481106105dc5760405162461bcd60e51b815260040161025e90610ed4565b5f8181526002602052604090206005015460ff166106315760405162461bcd60e51b81526020600482015260126024820152714e656564206973206e6f742061637469766560701b604482015260640161025e565b5f34116106935760405162461bcd60e51b815260206004820152602a60248201527f436f6e747269627574696f6e20616d6f756e74206d75737420626520677265616044820152690746572207468616e20360b41b606482015260840161025e565b5f818152600260205260409020600381015460048201546106b5903490610f6f565b11156106fc5760405162461bcd60e51b815260206004820152601660248201527515185c99d95d08185b5bdd5b9d08195e18d95959195960521b604482015260640161025e565b5f82815260036020908152604080832033845290915281208054349290610724908490610f6f565b9250508190555034816004015f82825461073e9190610f6f565b9091555050604051348152339083907f0a4a91237423e0a1766a761c7cb029311d8b95d6b1b81db1b949a70c98b4e08e9060200160405180910390a380600301548160040154106107d05760058101805460ff19169055600481015460405190815282907fd3b0687126c7c404003bcdc17db6ddec6967dc8d9bcbdad954b23308e077f2359060200160405180910390a25b506103bd60018055565b5f8082116108365760405162461bcd60e51b8152602060048201526024808201527f54617267657420616d6f756e74206d75737420626520677265617465722074686044820152630616e20360e41b606482015260840161025e565b6004546040805160e08101825286815260208082018790523382840152606082018690525f60808301819052600160a08401524260c0840152848152600290915291909120815181906108899082610fd6565b506020820151600182019061089e9082610fd6565b5060408201516002820180546001600160a01b0319166001600160a01b0390921691909117905560608201516003820155608082015160048083019190915560a083015160058301805460ff191691151591909117905560c0909201516006909101558054905f61090e83610f57565b9190505550336001600160a01b0316817fa20f1c5f8c4e5327f7be9ab4fb85e8b5c20d13fbc14fe087d4f217c5fcdfff18878660405161094f929190611092565b60405180910390a3949350505050565b6060805f805f805f60045488106109885760405162461bcd60e51b815260040161025e90610ed4565b5f8881526002602081905260409091209081015460038201546004830154600584015460068501548554869560018701956001600160a01b03909116949093909260ff9091169187906109da90610efd565b80601f0160208091040260200160405190810160405280929190818152602001828054610a0690610efd565b8015610a515780601f10610a2857610100808354040283529160200191610a51565b820191905f5260205f20905b815481529060010190602001808311610a3457829003601f168201915b50505050509650858054610a6490610efd565b80601f0160208091040260200160405190810160405280929190818152602001828054610a9090610efd565b8015610adb5780601f10610ab257610100808354040283529160200191610adb565b820191905f5260205f20905b815481529060010190602001808311610abe57829003601f168201915b50505050509550975097509750975097509750975050919395979092949650565b610b04610bcb565b6001600160a01b038116610b695760405162461bcd60e51b815260206004820152602660248201527f4f776e61626c653a206e6577206f776e657220697320746865207a65726f206160448201526564647265737360d01b606482015260840161025e565b6103bd81610c24565b600260015403610bc45760405162461bcd60e51b815260206004820152601f60248201527f5265656e7472616e637947756172643a207265656e7472616e742063616c6c00604482015260640161025e565b6002600155565b5f546001600160a01b031633146105255760405162461bcd60e51b815260206004820181905260248201527f4f776e61626c653a2063616c6c6572206973206e6f7420746865206f776e6572604482015260640161025e565b5f80546001600160a01b038381166001600160a01b0319831681178455604051919092169283917f8be0079c531659141344cd1fd0a4f28419497f9722a3daafe3b4186f6b6457e09190a35050565b5f60208284031215610c83575f80fd5b5035919050565b80356001600160a01b0381168114610ca0575f80fd5b919050565b5f8060408385031215610cb6575f80fd5b82359150610cc660208401610c8a565b90509250929050565b5f81518084525f5b81811015610cf357602081850181015186830182015201610cd7565b505f602082860101526020601f19601f83011685010191505092915050565b60e081525f610d2460e083018a610ccf565b8281036020840152610d36818a610ccf565b6001600160a01b03989098166040840152505060608101949094526080840192909252151560a083015260c09091015292915050565b602080825282518282018190525f9190848201906040850190845b81811015610da357835183529284019291840191600101610d87565b50909695505050505050565b634e487b7160e01b5f52604160045260245ffd5b5f82601f830112610dd2575f80fd5b813567ffffffffffffffff80821115610ded57610ded610daf565b604051601f8301601f19908116603f01168101908282118183101715610e1557610e15610daf565b81604052838152866020858801011115610e2d575f80fd5b836020870160208301375f602085830101528094505050505092915050565b5f805f60608486031215610e5e575f80fd5b833567ffffffffffffffff80821115610e75575f80fd5b610e8187838801610dc3565b94506020860135915080821115610e96575f80fd5b50610ea386828701610dc3565b925050604084013590509250925092565b5f60208284031215610ec4575f80fd5b610ecd82610c8a565b9392505050565b6020808252600f908201526e125b9d985b1a59081b995959081251608a1b604082015260600190565b600181811c90821680610f1157607f821691505b6020821081036105ad57634e487b7160e01b5f52602260045260245ffd5b634e487b7160e01b5f52603260045260245ffd5b634e487b7160e01b5f52601160045260245ffd5b5f60018201610f6857610f68610f43565b5060010190565b80820180821115610f8257610f82610f43565b92915050565b601f821115610fd1575f81815260208120601f850160051c81016020861015610fae5750805b601f850160051c820191505b81811015610fcd57828155600101610fba565b5050505b505050565b815167ffffffffffffffff811115610ff057610ff0610daf565b61100481610ffe8454610efd565b84610f88565b602080601f831160018114611037575f84156110205750858301515b5f19600386901b1c1916600185901b178555610fcd565b5f85815260208120601f198616915b8281101561106557888601518255948401946001909101908401611046565b508582101561108257878501515f19600388901b60f8161c191681555b5050505050600190811b01905550565b604081525f6110a46040830185610ccf565b9050826020830152939250505056fea26469706673582212204e75f491b3189abcdd4039e1a982350608d7c46abeffbbb7cf6d5589686b77f364736f6c63430008140033",
  "immutableReferences": {},
  "source": "// SPDX-License-Identifier: MIT\r\npragma solidity ^0.8.0;\r\n\r\nimport \"@openzeppelin/contracts/access/Ownable.sol\";\r\nimport \"@openzeppelin/contracts/security/ReentrancyGuard.sol\";\r\n\r\ncontract CharityContract is Ownable, ReentrancyGuard {\r\n    struct Need {\r\n        string title;\r\n        string description;\r\n        address creator;\r\n        uint256 targetAmount;\r\n        uint256 raisedAmount;\r\n        bool isActive;\r\n        uint256 createdAt;\r\n    }\r\n\r\n    mapping(uint256 => Need) public needs;\r\n    mapping(uint256 => mapping(address => uint256)) public contributions;\r\n    uint256 public needCount;\r\n\r\n    event NeedCreated(uint256 indexed needId, address indexed creator, string title, uint256 targetAmount);\r\n    event ContributionMade(uint256 indexed needId, address indexed contributor, uint256 amount);\r\n    event NeedCompleted(uint256 indexed needId, uint256 totalRaised);\r\n\r\n    constructor() {\r\n        needCount = 0;\r\n    }\r\n\r\n    function createNeed(\r\n        string memory _title,\r\n        string memory _description,\r\n        uint256 _targetAmount\r\n    ) public returns (uint256) {\r\n        require(_targetAmount > 0, \"Target amount must be greater than 0\");\r\n        \r\n        uint256 needId = needCount;\r\n        needs[needId] = Need({\r\n            title: _title,\r\n            description: _description,\r\n            creator: msg.sender,\r\n            targetAmount: _targetAmount,\r\n            raisedAmount: 0,\r\n            isActive: true,\r\n            createdAt: block.timestamp\r\n        });\r\n        \r\n        needCount++;\r\n        emit NeedCreated(needId, msg.sender, _title, _targetAmount);\r\n        return needId;\r\n    }\r\n\r\n    function contribute(uint256 _needId) public payable nonReentrant {\r\n        require(_needId < needCount, \"Invalid need ID\");\r\n        require(needs[_needId].isActive, \"Need is not active\");\r\n        require(msg.value > 0, \"Contribution amount must be greater than 0\");\r\n        \r\n        Need storage need = needs[_needId];\r\n        require(need.raisedAmount + msg.value <= need.targetAmount, \"Target amount exceeded\");\r\n        \r\n        contributions[_needId][msg.sender] += msg.value;\r\n        need.raisedAmount += msg.value;\r\n        \r\n        emit ContributionMade(_needId, msg.sender, msg.value);\r\n        \r\n        if (need.raisedAmount >= need.targetAmount) {\r\n            need.isActive = false;\r\n            emit NeedCompleted(_needId, need.raisedAmount);\r\n        }\r\n    }\r\n\r\n    function getNeedDetails(uint256 _needId) public view returns (\r\n        string memory title,\r\n        string memory description,\r\n        address creator,\r\n        uint256 targetAmount,\r\n        uint256 raisedAmount,\r\n        bool isActive,\r\n        uint256 createdAt\r\n    ) {\r\n        require(_needId < needCount, \"Invalid need ID\");\r\n        Need storage need = needs[_needId];\r\n        return (\r\n            need.title,\r\n            need.description,\r\n            need.creator,\r\n            need.targetAmount,\r\n            need.raisedAmount,\r\n            need.isActive,\r\n            need.createdAt\r\n        );\r\n    }\r\n\r\n    function getNeedCount() public view returns (uint256) {\r\n        return needCount;\r\n    }\r\n\r\n    function getNeedIds() public view returns (uint256[] memory) {\r\n        uint256[] memory ids = new uint256[](needCount);\r\n        for (uint256 i = 0; i < needCount; i++) {\r\n            ids[i] = i;\r\n        }\r\n        return ids;\r\n    }\r\n\r\n    function withdrawFunds(uint256 _needId) public nonReentrant {\r\n        require(_needId < needCount, \"Invalid need ID\");\r\n        Need storage need = needs[_needId];\r\n        require(msg.sender == need.creator, \"Only creator can withdraw\");\r\n        require(!need.isActive, \"Need is still active\");\r\n        \r\n        uint256 amount = need.raisedAmount;\r\n        need.raisedAmount = 0;\r\n        \r\n        (bool success, ) = msg.sender.call{value: amount}(\"\");\r\n        require(success, \"Transfer failed\");\r\n    }\r\n} ",
  "sourcePath": "D:\\KhoaLuanTotNghiep\\XDWHTDPV3431\\backend\\contracts\\CharityContract.sol",
  "compiler": {
    "name": "solc",
    "version": "0.8.20+commit.a1b79de6.Emscripten.clang"
  },
  "schemaVersion": "3.4.16",
  "updatedAt": "2025-05-23T15:38:39.033Z",
  "devdoc": {
    "kind": "dev",
    "methods": {
      "owner()": {
        "details": "Returns the address of the current owner."
      },
      "renounceOwnership()": {
        "details": "Leaves the contract without owner. It will not be possible to call `onlyOwner` functions. Can only be called by the current owner. NOTE: Renouncing ownership will leave the contract without an owner, thereby disabling any functionality that is only available to the owner."
      },
      "transferOwnership(address)": {
        "details": "Transfers ownership of the contract to a new account (`newOwner`). Can only be called by the current owner."
      }
    },
    "version": 1
  },
  "userdoc": {
    "kind": "user",
    "methods": {},
    "version": 1
  }
}