{
  "contractName": "CharityContract",
  "abi": [
    {
      "anonymous": false,
      "inputs": [
        {
          "indexed": true,
          "internalType": "uint256",
          "name": "needId",
          "type": "uint256"
        },
        {
          "indexed": true,
          "internalType": "address",
          "name": "contributor",
          "type": "address"
        },
        {
          "indexed": false,
          "internalType": "uint256",
          "name": "amount",
          "type": "uint256"
        }
      ],
      "name": "ContributionMade",
      "type": "event"
    },
    {
      "anonymous": false,
      "inputs": [
        {
          "indexed": true,
          "internalType": "uint256",
          "name": "needId",
          "type": "uint256"
        }
      ],
      "name": "NeedCompleted",
      "type": "event"
    },
    {
      "anonymous": false,
      "inputs": [
        {
          "indexed": true,
          "internalType": "uint256",
          "name": "needId",
          "type": "uint256"
        },
        {
          "indexed": false,
          "internalType": "string",
          "name": "title",
          "type": "string"
        },
        {
          "indexed": false,
          "internalType": "uint256",
          "name": "targetAmount",
          "type": "uint256"
        }
      ],
      "name": "NeedCreated",
      "type": "event"
    },
    {
      "inputs": [
        {
          "internalType": "uint256",
          "name": "",
          "type": "uint256"
        },
        {
          "internalType": "uint256",
          "name": "",
          "type": "uint256"
        }
      ],
      "name": "contributions",
      "outputs": [
        {
          "internalType": "uint256",
          "name": "needId",
          "type": "uint256"
        },
        {
          "internalType": "address",
          "name": "contributor",
          "type": "address"
        },
        {
          "internalType": "uint256",
          "name": "amount",
          "type": "uint256"
        },
        {
          "internalType": "uint256",
          "name": "timestamp",
          "type": "uint256"
        }
      ],
      "stateMutability": "view",
      "type": "function",
      "constant": true
    },
    {
      "inputs": [],
      "name": "needCount",
      "outputs": [
        {
          "internalType": "uint256",
          "name": "",
          "type": "uint256"
        }
      ],
      "stateMutability": "view",
      "type": "function",
      "constant": true
    },
    {
      "inputs": [
        {
          "internalType": "uint256",
          "name": "",
          "type": "uint256"
        }
      ],
      "name": "needs",
      "outputs": [
        {
          "internalType": "uint256",
          "name": "id",
          "type": "uint256"
        },
        {
          "internalType": "string",
          "name": "title",
          "type": "string"
        },
        {
          "internalType": "string",
          "name": "description",
          "type": "string"
        },
        {
          "internalType": "uint256",
          "name": "targetAmount",
          "type": "uint256"
        },
        {
          "internalType": "uint256",
          "name": "currentAmount",
          "type": "uint256"
        },
        {
          "internalType": "address",
          "name": "creator",
          "type": "address"
        },
        {
          "internalType": "bool",
          "name": "isActive",
          "type": "bool"
        },
        {
          "internalType": "uint256",
          "name": "createdAt",
          "type": "uint256"
        }
      ],
      "stateMutability": "view",
      "type": "function",
      "constant": true
    },
    {
      "inputs": [
        {
          "internalType": "string",
          "name": "_title",
          "type": "string"
        },
        {
          "internalType": "string",
          "name": "_description",
          "type": "string"
        },
        {
          "internalType": "uint256",
          "name": "_targetAmount",
          "type": "uint256"
        }
      ],
      "name": "createNeed",
      "outputs": [],
      "stateMutability": "nonpayable",
      "type": "function"
    },
    {
      "inputs": [
        {
          "internalType": "uint256",
          "name": "_needId",
          "type": "uint256"
        }
      ],
      "name": "contribute",
      "outputs": [],
      "stateMutability": "payable",
      "type": "function",
      "payable": true
    },
    {
      "inputs": [
        {
          "internalType": "uint256",
          "name": "_needId",
          "type": "uint256"
        }
      ],
      "name": "getNeed",
      "outputs": [
        {
          "internalType": "uint256",
          "name": "id",
          "type": "uint256"
        },
        {
          "internalType": "string",
          "name": "title",
          "type": "string"
        },
        {
          "internalType": "string",
          "name": "description",
          "type": "string"
        },
        {
          "internalType": "uint256",
          "name": "targetAmount",
          "type": "uint256"
        },
        {
          "internalType": "uint256",
          "name": "currentAmount",
          "type": "uint256"
        },
        {
          "internalType": "address",
          "name": "creator",
          "type": "address"
        },
        {
          "internalType": "bool",
          "name": "isActive",
          "type": "bool"
        },
        {
          "internalType": "uint256",
          "name": "createdAt",
          "type": "uint256"
        }
      ],
      "stateMutability": "view",
      "type": "function",
      "constant": true
    },
    {
      "inputs": [
        {
          "internalType": "uint256",
          "name": "_needId",
          "type": "uint256"
        }
      ],
      "name": "getContributions",
      "outputs": [
        {
          "components": [
            {
              "internalType": "uint256",
              "name": "needId",
              "type": "uint256"
            },
            {
              "internalType": "address",
              "name": "contributor",
              "type": "address"
            },
            {
              "internalType": "uint256",
              "name": "amount",
              "type": "uint256"
            },
            {
              "internalType": "uint256",
              "name": "timestamp",
              "type": "uint256"
            }
          ],
          "internalType": "struct CharityContract.Contribution[]",
          "name": "",
          "type": "tuple[]"
        }
      ],
      "stateMutability": "view",
      "type": "function",
      "constant": true
    }
  ],
  "bytecode": "0x608060405234801561001057600080fd5b50610d8e806100206000396000f3fe6080604052600436106100705760003560e01c8063c1cbbca71161004e578063c1cbbca714610102578063d05282d014610117578063d05e3cc514610139578063d9516c271461016657610070565b806332df0f6b14610075578063432747a5146100b2578063830e28f6146100d2575b600080fd5b34801561008157600080fd5b50610095610090366004610a7a565b610186565b6040516100a9989796959493929190610c59565b60405180910390f35b3480156100be57600080fd5b506100956100cd366004610a7a565b61038e565b3480156100de57600080fd5b506100f26100ed366004610a92565b6104f0565b6040516100a99493929190610c35565b610115610110366004610a7a565b61053f565b005b34801561012357600080fd5b5061012c610712565b6040516100a99190610c2c565b34801561014557600080fd5b50610159610154366004610a7a565b610718565b6040516100a99190610afe565b34801561017257600080fd5b50610115610181366004610a10565b6107b5565b60006060806000806000806000806000808b815260200190815260200160002060405180610100016040529081600082015481526020016001820180546101cc90610cd6565b80601f01602080910402602001604051908101604052809291908181526020018280546101f890610cd6565b80156102455780601f1061021a57610100808354040283529160200191610245565b820191906000526020600020905b81548152906001019060200180831161022857829003601f168201915b5050505050815260200160028201805461025e90610cd6565b80601f016020809104026020016040519081016040528092919081815260200182805461028a90610cd6565b80156102d75780601f106102ac576101008083540402835291602001916102d7565b820191906000526020600020905b8154815290600101906020018083116102ba57829003601f168201915b5050505050815260200160038201548152602001600482015481526020016005820160009054906101000a90046001600160a01b03166001600160a01b03166001600160a01b031681526020016005820160149054906101000a900460ff161515151581526020016006820154815250509050806000015181602001518260400151836060015184608001518560a001518660c001518760e001519850985098509850985098509850985050919395975091939597565b600060208190529081526040902080546001820180549192916103b090610cd6565b80601f01602080910402602001604051908101604052809291908181526020018280546103dc90610cd6565b80156104295780601f106103fe57610100808354040283529160200191610429565b820191906000526020600020905b81548152906001019060200180831161040c57829003601f168201915b50505050509080600201805461043e90610cd6565b80601f016020809104026020016040519081016040528092919081815260200182805461046a90610cd6565b80156104b75780601f1061048c576101008083540402835291602001916104b7565b820191906000526020600020905b81548152906001019060200180831161049a57829003601f168201915b50505050600383015460048401546005850154600690950154939491939092506001600160a01b03821691600160a01b900460ff169088565b6001602052816000526040600020818154811061050c57600080fd5b600091825260209091206004909102018054600182015460028301546003909301549194506001600160a01b0316925084565b60008111801561055157506002548111155b6105765760405162461bcd60e51b815260040161056d90610c03565b60405180910390fd5b600081815260208190526040902060050154600160a01b900460ff166105ae5760405162461bcd60e51b815260040161056d90610bd7565b600034116105ce5760405162461bcd60e51b815260040161056d90610b8d565b600081815260208190526040812060040180543492906105ef908490610cbe565b909155505060008181526001602081815260408084208151608081018352868152338185018181523483860181815242606086019081528654808b018855968b5297909920935160049095029093019384555195830180546001600160a01b0319166001600160a01b039097169690961790955594516002820155915160039092019190915551909183917f0a4a91237423e0a1766a761c7cb029311d8b95d6b1b81db1b949a70c98b4e08e916106a591610c2c565b60405180910390a3600081815260208190526040902060038101546004909101541061070f57600081815260208190526040808220600501805460ff60a01b191690555182917f0ed97a786921ecf86432abfcf40484988d910f413c384adbf17c80c1c9d5cd9791a25b50565b60025481565b606060016000838152602001908152602001600020805480602002602001604051908101604052809291908181526020016000905b828210156107aa5760008481526020908190206040805160808101825260048602909201805483526001808201546001600160a01b031684860152600282015492840192909252600301546060830152908352909201910161074d565b505050509050919050565b600280549060006107c583610d11565b909155505060408051610100810182526002548082526020808301878152838501879052606084018690526000608085018190523360a0860152600160c086018190524260e08701529381528083529490942083518155935180519394936108349385019291909101906108f6565b50604082015180516108509160028401916020909101906108f6565b50606082015160038201556080820151600482015560a082015160058201805460c08501511515600160a01b0260ff60a01b196001600160a01b039094166001600160a01b0319909216919091179290921691909117905560e0909101516006909101556002546040517f51c15238695ffd185f9312296c45dbfbdebad5a2922918b440e53f7927fd9dad906108e99086908590610b6b565b60405180910390a2505050565b82805461090290610cd6565b90600052602060002090601f016020900481019282610924576000855561096a565b82601f1061093d57805160ff191683800117855561096a565b8280016001018555821561096a579182015b8281111561096a57825182559160200191906001019061094f565b5061097692915061097a565b5090565b5b80821115610976576000815560010161097b565b600082601f83011261099f578081fd5b813567ffffffffffffffff808211156109ba576109ba610d42565b604051601f8301601f1916810160200182811182821017156109de576109de610d42565b6040528281528483016020018610156109f5578384fd5b82602086016020830137918201602001929092529392505050565b600080600060608486031215610a24578283fd5b833567ffffffffffffffff80821115610a3b578485fd5b610a478783880161098f565b94506020860135915080821115610a5c578384fd5b50610a698682870161098f565b925050604084013590509250925092565b600060208284031215610a8b578081fd5b5035919050565b60008060408385031215610aa4578182fd5b50508035926020909101359150565b60008151808452815b81811015610ad857602081850181015186830182015201610abc565b81811115610ae95782602083870101525b50601f01601f19169290920160200192915050565b602080825282518282018190526000919060409081850190868401855b82811015610b5e57815180518552868101516001600160a01b03168786015285810151868601526060908101519085015260809093019290850190600101610b1b565b5091979650505050505050565b600060408252610b7e6040830185610ab3565b90508260208301529392505050565b6020808252602a908201527f436f6e747269627574696f6e20616d6f756e74206d75737420626520677265616040820152690746572207468616e20360b41b606082015260800190565b6020808252601290820152714e656564206973206e6f742061637469766560701b604082015260600190565b6020808252600f908201526e125b9d985b1a59081b995959081251608a1b604082015260600190565b90815260200190565b9384526001600160a01b039290921660208401526040830152606082015260800190565b60006101008a8352806020840152610c738184018b610ab3565b90508281036040840152610c87818a610ab3565b6060840198909852505060808101949094526001600160a01b039290921660a0840152151560c083015260e0909101529392505050565b60008219821115610cd157610cd1610d2c565b500190565b600281046001821680610cea57607f821691505b60208210811415610d0b57634e487b7160e01b600052602260045260246000fd5b50919050565b6000600019821415610d2557610d25610d2c565b5060010190565b634e487b7160e01b600052601160045260246000fd5b634e487b7160e01b600052604160045260246000fdfea2646970667358221220c20263848de179fc3992b3cbe1d8261e7fe604fe61768b100ab6333d1a8e2e1164736f6c63430008000033",
  "immutableReferences": {},
  "source": "// SPDX-License-Identifier: MIT\r\npragma solidity ^0.8.0;\r\n\r\ncontract CharityContract {\r\n    struct Need {\r\n        uint256 id;\r\n        string title;\r\n        string description;\r\n        uint256 targetAmount;\r\n        uint256 currentAmount;\r\n        address creator;\r\n        bool isActive;\r\n        uint256 createdAt;\r\n    }\r\n\r\n    struct Contribution {\r\n        uint256 needId;\r\n        address contributor;\r\n        uint256 amount;\r\n        uint256 timestamp;\r\n    }\r\n\r\n    mapping(uint256 => Need) public needs;\r\n    mapping(uint256 => Contribution[]) public contributions;\r\n    uint256 public needCount;\r\n\r\n    event NeedCreated(uint256 indexed needId, string title, uint256 targetAmount);\r\n    event ContributionMade(uint256 indexed needId, address indexed contributor, uint256 amount);\r\n    event NeedCompleted(uint256 indexed needId);\r\n\r\n    function createNeed(string memory _title, string memory _description, uint256 _targetAmount) public {\r\n        needCount++;\r\n        needs[needCount] = Need({\r\n            id: needCount,\r\n            title: _title,\r\n            description: _description,\r\n            targetAmount: _targetAmount,\r\n            currentAmount: 0,\r\n            creator: msg.sender,\r\n            isActive: true,\r\n            createdAt: block.timestamp\r\n        });\r\n        emit NeedCreated(needCount, _title, _targetAmount);\r\n    }\r\n\r\n    function contribute(uint256 _needId) public payable {\r\n        require(_needId > 0 && _needId <= needCount, \"Invalid need ID\");\r\n        require(needs[_needId].isActive, \"Need is not active\");\r\n        require(msg.value > 0, \"Contribution amount must be greater than 0\");\r\n\r\n        needs[_needId].currentAmount += msg.value;\r\n        contributions[_needId].push(Contribution({\r\n            needId: _needId,\r\n            contributor: msg.sender,\r\n            amount: msg.value,\r\n            timestamp: block.timestamp\r\n        }));\r\n\r\n        emit ContributionMade(_needId, msg.sender, msg.value);\r\n\r\n        if (needs[_needId].currentAmount >= needs[_needId].targetAmount) {\r\n            needs[_needId].isActive = false;\r\n            emit NeedCompleted(_needId);\r\n        }\r\n    }\r\n\r\n    function getNeed(uint256 _needId) public view returns (\r\n        uint256 id,\r\n        string memory title,\r\n        string memory description,\r\n        uint256 targetAmount,\r\n        uint256 currentAmount,\r\n        address creator,\r\n        bool isActive,\r\n        uint256 createdAt\r\n    ) {\r\n        Need memory need = needs[_needId];\r\n        return (\r\n            need.id,\r\n            need.title,\r\n            need.description,\r\n            need.targetAmount,\r\n            need.currentAmount,\r\n            need.creator,\r\n            need.isActive,\r\n            need.createdAt\r\n        );\r\n    }\r\n\r\n    function getContributions(uint256 _needId) public view returns (Contribution[] memory) {\r\n        return contributions[_needId];\r\n    }\r\n} ",
  "sourcePath": "D:\\KhoaLuanTotNghiep\\XDWHTDPV3431\\contracts\\CharityContract.sol",
  "compiler": {
    "name": "solc",
    "version": "0.8.0+commit.c7dfd78e.Emscripten.clang"
  },
  "schemaVersion": "3.4.16",
  "updatedAt": "2025-05-23T14:59:24.742Z",
  "networkType": "ethereum",
  "devdoc": {
    "kind": "dev",
    "methods": {},
    "version": 1
  },
  "userdoc": {
    "kind": "user",
    "methods": {},
    "version": 1
  }
}